:060000000A128A1100291A
:1002000003178316880189010313831685010313DD
:1002100083168601031383168701031383161F3089
:100220008800031383128501860187010030A00036
:100230000030A100081C2521881C2C21081D332119
:10024000881D3A21081E41211A29081C2529A00AC7
:1002500020080F3985000800881C2C29A0032008DD
:100260000F3985000800081D3329A10A21080F391C
:1002700086000800881D3A29A10321080F3986004D
:0E0280000800081E412905080607870008002F
:04400E00D420FF3E7D
:00000001FF
